{
  "contractName": "Voting",
  "abi": [
    {
      "inputs": [],
      "stateMutability": "nonpayable",
      "type": "constructor"
    },
    {
      "anonymous": false,
      "inputs": [
        {
          "indexed": false,
          "internalType": "string",
          "name": "name",
          "type": "string"
        },
        {
          "indexed": false,
          "internalType": "uint256",
          "name": "candidateCount",
          "type": "uint256"
        }
      ],
      "name": "CandidateAdded",
      "type": "event"
    },
    {
      "inputs": [],
      "name": "candidateCount",
      "outputs": [
        {
          "internalType": "uint256",
          "name": "",
          "type": "uint256"
        }
      ],
      "stateMutability": "view",
      "type": "function",
      "constant": true
    },
    {
      "inputs": [
        {
          "internalType": "uint256",
          "name": "",
          "type": "uint256"
        }
      ],
      "name": "candidates",
      "outputs": [
        {
          "internalType": "string",
          "name": "name",
          "type": "string"
        },
        {
          "internalType": "uint256",
          "name": "voteCount",
          "type": "uint256"
        }
      ],
      "stateMutability": "view",
      "type": "function",
      "constant": true
    },
    {
      "inputs": [],
      "name": "getCandidateCount",
      "outputs": [
        {
          "internalType": "uint256",
          "name": "",
          "type": "uint256"
        }
      ],
      "stateMutability": "view",
      "type": "function",
      "constant": true
    },
    {
      "inputs": [
        {
          "internalType": "uint256",
          "name": "index",
          "type": "uint256"
        }
      ],
      "name": "getCandidate",
      "outputs": [
        {
          "internalType": "string",
          "name": "name",
          "type": "string"
        },
        {
          "internalType": "uint256",
          "name": "voteCount",
          "type": "uint256"
        }
      ],
      "stateMutability": "view",
      "type": "function",
      "constant": true
    }
  ],
  "bytecode": "0x608060405234801561001057600080fd5b506100556040518060400160405280600581526020017f416c69636500000000000000000000000000000000000000000000000000000081525061009e60201b60201c565b6100996040518060400160405280600381526020017f426f62000000000000000000000000000000000000000000000000000000000081525061009e60201b60201c565b6103a6565b60405180604001604052808281526020016000815250600080600154815260200190815260200160002060008201518160000190805190602001906100e4929190610148565b50602082015181600101559050507fa89e28469fa9e15d5149634a9ce8d8dd59ec42c18ba2d281b08c305f2095acef81600154604051610125929190610233565b60405180910390a160016000815480929190610140906102ee565b919050555050565b828054610154906102bc565b90600052602060002090601f01602090048101928261017657600085556101bd565b82601f1061018f57805160ff19168380011785556101bd565b828001600101855582156101bd579182015b828111156101bc5782518255916020019190600101906101a1565b5b5090506101ca91906101ce565b5090565b5b808211156101e75760008160009055506001016101cf565b5090565b60006101f682610263565b610200818561026e565b9350610210818560208601610289565b61021981610395565b840191505092915050565b61022d8161027f565b82525050565b6000604082019050818103600083015261024d81856101eb565b905061025c6020830184610224565b9392505050565b600081519050919050565b600082825260208201905092915050565b6000819050919050565b60005b838110156102a757808201518184015260208101905061028c565b838111156102b6576000848401525b50505050565b600060028204905060018216806102d457607f821691505b602082108114156102e8576102e7610366565b5b50919050565b60006102f98261027f565b91507fffffffffffffffffffffffffffffffffffffffffffffffffffffffffffffffff82141561032c5761032b610337565b5b600182019050919050565b7f4e487b7100000000000000000000000000000000000000000000000000000000600052601160045260246000fd5b7f4e487b7100000000000000000000000000000000000000000000000000000000600052602260045260246000fd5b6000601f19601f8301169050919050565b61050d80620003b66000396000f3fe608060405234801561001057600080fd5b506004361061004c5760003560e01c806330a56347146100515780633477ee2e1461006f57806335b8e820146100a0578063a9a981a3146100d1575b600080fd5b6100596100ef565b60405161006691906103da565b60405180910390f35b610089600480360381019061008491906102d9565b6100f9565b60405161009792919061038a565b60405180910390f35b6100ba60048036038101906100b591906102d9565b6101a5565b6040516100c892919061038a565b60405180910390f35b6100d96102be565b6040516100e691906103da565b60405180910390f35b6000600154905090565b600060205280600052604060002060009150905080600001805461011c9061044e565b80601f01602080910402602001604051908101604052809291908181526020018280546101489061044e565b80156101955780601f1061016a57610100808354040283529160200191610195565b820191906000526020600020905b81548152906001019060200180831161017857829003601f168201915b5050505050908060010154905082565b6060600060015483106101ed576040517f08c379a00000000000000000000000000000000000000000000000000000000081526004016101e4906103ba565b60405180910390fd5b600080600085815260200190815260200160002060405180604001604052908160008201805461021c9061044e565b80601f01602080910402602001604051908101604052809291908181526020018280546102489061044e565b80156102955780601f1061026a57610100808354040283529160200191610295565b820191906000526020600020905b81548152906001019060200180831161027857829003601f168201915b505050505081526020016001820154815250509050806000015181602001519250925050915091565b60015481565b6000813590506102d3816104c0565b92915050565b6000602082840312156102eb57600080fd5b60006102f9848285016102c4565b91505092915050565b600061030d826103f5565b6103178185610400565b935061032781856020860161041b565b610330816104af565b840191505092915050565b6000610348601883610400565b91507f43616e64696461746520646f6573206e6f7420657869737400000000000000006000830152602082019050919050565b61038481610411565b82525050565b600060408201905081810360008301526103a48185610302565b90506103b3602083018461037b565b9392505050565b600060208201905081810360008301526103d38161033b565b9050919050565b60006020820190506103ef600083018461037b565b92915050565b600081519050919050565b600082825260208201905092915050565b6000819050919050565b60005b8381101561043957808201518184015260208101905061041e565b83811115610448576000848401525b50505050565b6000600282049050600182168061046657607f821691505b6020821081141561047a57610479610480565b5b50919050565b7f4e487b7100000000000000000000000000000000000000000000000000000000600052602260045260246000fd5b6000601f19601f8301169050919050565b6104c981610411565b81146104d457600080fd5b5056fea264697066735822122030315c044de39810e83393f02fb93240fccb83b67b1be2a6eba66ab3412c88fe64736f6c63430008000033",
  "immutableReferences": {},
  "source": "// SPDX-License-Identifier: UNLICENSED\r\npragma solidity ^0.8.0;\r\n\r\ncontract Voting {\r\n    struct Candidate {\r\n        string name;\r\n        uint voteCount;\r\n    }\r\n\r\n    mapping(uint => Candidate) public candidates;\r\n    uint public candidateCount;\r\n\r\n    // Event to log the addition of candidates\r\n    event CandidateAdded(string name, uint candidateCount);\r\n\r\n    // Constructor to initialize candidates\r\n    constructor() {\r\n        addCandidate(\"Alice\");\r\n        addCandidate(\"Bob\");\r\n    }\r\n\r\n    // Private function to add candidates\r\n    function addCandidate(string memory name) private {\r\n        candidates[candidateCount] = Candidate(name, 0);\r\n        emit CandidateAdded(name, candidateCount); // Emit event\r\n        candidateCount++;\r\n    }\r\n\r\n    // Function to get the total number of candidates\r\n    function getCandidateCount() public view returns (uint) {\r\n        return candidateCount;\r\n    }\r\n\r\n    // Function to get a candidate by index\r\n    function getCandidate(uint index) public view returns (string memory name, uint voteCount) {\r\n        require(index < candidateCount, \"Candidate does not exist\");\r\n        Candidate memory candidate = candidates[index];\r\n        return (candidate.name, candidate.voteCount);\r\n    }\r\n}\r\n",
  "sourcePath": "C:\\Users\\manoj\\OneDrive\\Documents\\voting-system\\voting-system\\contracts\\Voting.sol",
  "compiler": {
    "name": "solc",
    "version": "0.8.0+commit.c7dfd78e.Emscripten.clang"
  },
  "schemaVersion": "3.4.16",
  "updatedAt": "2025-02-24T09:55:34.248Z",
  "networkType": "ethereum",
  "devdoc": {
    "kind": "dev",
    "methods": {},
    "version": 1
  },
  "userdoc": {
    "kind": "user",
    "methods": {},
    "version": 1
  }
}